{
	"data": {
		"bytecode": {
			"linkReferences": {},
			"object": "608060405234801561001057600080fd5b5060405161001d9061007e565b604051809103906000f080158015610039573d6000803e3d6000fd5b506000806101000a81548173ffffffffffffffffffffffffffffffffffffffff021916908373ffffffffffffffffffffffffffffffffffffffff16021790555061008b565b61053580610a8a83390190565b6109f08061009a6000396000f3fe6080604052600436106100345760003560e01c80635c8a7687146100395780637aa1c0d814610064578063abab4e0714610080575b600080fd5b34801561004557600080fd5b5061004e61009c565b60405161005b91906103f2565b60405180910390f35b61007e60048036038101906100799190610567565b6100c0565b005b61009a60048036038101906100959190610624565b61017e565b005b60008054906101000a900473ffffffffffffffffffffffffffffffffffffffff1681565b60006100cb8261025c565b905060008173ffffffffffffffffffffffffffffffffffffffff16346040516100f3906106c4565b60006040518083038185875af1925050503d8060008114610130576040519150601f19603f3d011682016040523d82523d6000602084013e610135565b606091505b5050905080610179576040517f08c379a000000000000000000000000000000000000000000000000000000000815260040161017090610736565b60405180910390fd5b505050565b60006101898461025c565b9050600083905060008173ffffffffffffffffffffffffffffffffffffffff166323b872dd3385876040518463ffffffff1660e01b81526004016101cf93929190610774565b6020604051808303816000875af11580156101ee573d6000803e3d6000fd5b505050506040513d601f19601f8201168201806040525081019061021291906107e3565b905080610254576040517f08c379a000000000000000000000000000000000000000000000000000000000815260040161024b9061085c565b60405180910390fd5b505050505050565b60008060008054906101000a900473ffffffffffffffffffffffffffffffffffffffff1673ffffffffffffffffffffffffffffffffffffffff16634bff5009846040518263ffffffff1660e01b81526004016102b891906108ea565b602060405180830381865afa1580156102d5573d6000803e3d6000fd5b505050506040513d601f19601f820116820180604052508101906102f99190610921565b9050600073ffffffffffffffffffffffffffffffffffffffff168173ffffffffffffffffffffffffffffffffffffffff160361036a576040517f08c379a00000000000000000000000000000000000000000000000000000000081526004016103619061099a565b60405180910390fd5b80915050919050565b600073ffffffffffffffffffffffffffffffffffffffff82169050919050565b6000819050919050565b60006103b86103b36103ae84610373565b610393565b610373565b9050919050565b60006103ca8261039d565b9050919050565b60006103dc826103bf565b9050919050565b6103ec816103d1565b82525050565b600060208201905061040760008301846103e3565b92915050565b6000604051905090565b600080fd5b600080fd5b600080fd5b600080fd5b6000601f19601f8301169050919050565b7f4e487b7100000000000000000000000000000000000000000000000000000000600052604160045260246000fd5b6104748261042b565b810181811067ffffffffffffffff821117156104935761049261043c565b5b80604052505050565b60006104a661040d565b90506104b2828261046b565b919050565b600067ffffffffffffffff8211156104d2576104d161043c565b5b6104db8261042b565b9050602081019050919050565b82818337600083830152505050565b600061050a610505846104b7565b61049c565b90508281526020810184848401111561052657610525610426565b5b6105318482856104e8565b509392505050565b600082601f83011261054e5761054d610421565b5b813561055e8482602086016104f7565b91505092915050565b60006020828403121561057d5761057c610417565b5b600082013567ffffffffffffffff81111561059b5761059a61041c565b5b6105a784828501610539565b91505092915050565b60006105bb82610373565b9050919050565b6105cb816105b0565b81146105d657600080fd5b50565b6000813590506105e8816105c2565b92915050565b6000819050919050565b610601816105ee565b811461060c57600080fd5b50565b60008135905061061e816105f8565b92915050565b60008060006060848603121561063d5761063c610417565b5b600084013567ffffffffffffffff81111561065b5761065a61041c565b5b61066786828701610539565b9350506020610678868287016105d9565b92505060406106898682870161060f565b9150509250925092565b600081905092915050565b50565b60006106ae600083610693565b91506106b98261069e565b600082019050919050565b60006106cf826106a1565b9150819050919050565b600082825260208201905092915050565b7f4572726f72000000000000000000000000000000000000000000000000000000600082015250565b60006107206005836106d9565b915061072b826106ea565b602082019050919050565b6000602082019050818103600083015261074f81610713565b9050919050565b61075f816105b0565b82525050565b61076e816105ee565b82525050565b60006060820190506107896000830186610756565b6107966020830185610756565b6107a36040830184610765565b949350505050565b60008115159050919050565b6107c0816107ab565b81146107cb57600080fd5b50565b6000815190506107dd816107b7565b92915050565b6000602082840312156107f9576107f8610417565b5b6000610807848285016107ce565b91505092915050565b7f556e61626c6520746f2073656e7420746f6b656e730000000000000000000000600082015250565b60006108466015836106d9565b915061085182610810565b602082019050919050565b6000602082019050818103600083015261087581610839565b9050919050565b600081519050919050565b60005b838110156108a557808201518184015260208101905061088a565b60008484015250505050565b60006108bc8261087c565b6108c681856106d9565b93506108d6818560208601610887565b6108df8161042b565b840191505092915050565b6000602082019050818103600083015261090481846108b1565b905092915050565b60008151905061091b816105c2565b92915050565b60006020828403121561093757610936610417565b5b60006109458482850161090c565b91505092915050565b7f55736572206e6f7420666f756e64000000000000000000000000000000000000600082015250565b6000610984600e836106d9565b915061098f8261094e565b602082019050919050565b600060208201905081810360008301526109b381610977565b905091905056fea2646970667358221220f565eaccb3a4fff0a01c6aa646a3f3d749c02073c17f0c607684549dd38a80a664736f6c63430008110033608060405234801561001057600080fd5b50610515806100206000396000f3fe608060405234801561001057600080fd5b50600436106100365760003560e01c80634bff50091461003b578063529ff8d41461006b575b600080fd5b61005560048036038101906100509190610335565b610087565b60405161006291906103bf565b60405180910390f35b61008560048036038101906100809190610335565b6100ce565b005b60008082604051610098919061044b565b908152602001604051809103902060009054906101000a900473ffffffffffffffffffffffffffffffffffffffff169050919050565b600073ffffffffffffffffffffffffffffffffffffffff166000826040516100f6919061044b565b908152602001604051809103902060009054906101000a900473ffffffffffffffffffffffffffffffffffffffff1673ffffffffffffffffffffffffffffffffffffffff161461017b576040517f08c379a0000000000000000000000000000000000000000000000000000000008152600401610172906104bf565b60405180910390fd5b3360008260405161018c919061044b565b908152602001604051809103902060006101000a81548173ffffffffffffffffffffffffffffffffffffffff021916908373ffffffffffffffffffffffffffffffffffffffff16021790555050565b6000604051905090565b600080fd5b600080fd5b600080fd5b600080fd5b6000601f19601f8301169050919050565b7f4e487b7100000000000000000000000000000000000000000000000000000000600052604160045260246000fd5b610242826101f9565b810181811067ffffffffffffffff821117156102615761026061020a565b5b80604052505050565b60006102746101db565b90506102808282610239565b919050565b600067ffffffffffffffff8211156102a05761029f61020a565b5b6102a9826101f9565b9050602081019050919050565b82818337600083830152505050565b60006102d86102d384610285565b61026a565b9050828152602081018484840111156102f4576102f36101f4565b5b6102ff8482856102b6565b509392505050565b600082601f83011261031c5761031b6101ef565b5b813561032c8482602086016102c5565b91505092915050565b60006020828403121561034b5761034a6101e5565b5b600082013567ffffffffffffffff811115610369576103686101ea565b5b61037584828501610307565b91505092915050565b600073ffffffffffffffffffffffffffffffffffffffff82169050919050565b60006103a98261037e565b9050919050565b6103b98161039e565b82525050565b60006020820190506103d460008301846103b0565b92915050565b600081519050919050565b600081905092915050565b60005b8381101561040e5780820151818401526020810190506103f3565b60008484015250505050565b6000610425826103da565b61042f81856103e5565b935061043f8185602086016103f0565b80840191505092915050565b6000610457828461041a565b915081905092915050565b600082825260208201905092915050565b7f4e69636b6e616d652068617320616c72656164792074616b656e000000000000600082015250565b60006104a9601a83610462565b91506104b482610473565b602082019050919050565b600060208201905081810360008301526104d88161049c565b905091905056fea2646970667358221220c46da44192eaeb8aaee20c3a820af0c9fba0870aa3117a49d0f73cff7324a71b64736f6c63430008110033",
			"opcodes": "PUSH1 0x80 PUSH1 0x40 MSTORE CALLVALUE DUP1 ISZERO PUSH2 0x10 JUMPI PUSH1 0x0 DUP1 REVERT JUMPDEST POP PUSH1 0x40 MLOAD PUSH2 0x1D SWAP1 PUSH2 0x7E JUMP JUMPDEST PUSH1 0x40 MLOAD DUP1 SWAP2 SUB SWAP1 PUSH1 0x0 CREATE DUP1 ISZERO DUP1 ISZERO PUSH2 0x39 JUMPI RETURNDATASIZE PUSH1 0x0 DUP1 RETURNDATACOPY RETURNDATASIZE PUSH1 0x0 REVERT JUMPDEST POP PUSH1 0x0 DUP1 PUSH2 0x100 EXP DUP2 SLOAD DUP2 PUSH20 0xFFFFFFFFFFFFFFFFFFFFFFFFFFFFFFFFFFFFFFFF MUL NOT AND SWAP1 DUP4 PUSH20 0xFFFFFFFFFFFFFFFFFFFFFFFFFFFFFFFFFFFFFFFF AND MUL OR SWAP1 SSTORE POP PUSH2 0x8B JUMP JUMPDEST PUSH2 0x535 DUP1 PUSH2 0xA8A DUP4 CODECOPY ADD SWAP1 JUMP JUMPDEST PUSH2 0x9F0 DUP1 PUSH2 0x9A PUSH1 0x0 CODECOPY PUSH1 0x0 RETURN INVALID PUSH1 0x80 PUSH1 0x40 MSTORE PUSH1 0x4 CALLDATASIZE LT PUSH2 0x34 JUMPI PUSH1 0x0 CALLDATALOAD PUSH1 0xE0 SHR DUP1 PUSH4 0x5C8A7687 EQ PUSH2 0x39 JUMPI DUP1 PUSH4 0x7AA1C0D8 EQ PUSH2 0x64 JUMPI DUP1 PUSH4 0xABAB4E07 EQ PUSH2 0x80 JUMPI JUMPDEST PUSH1 0x0 DUP1 REVERT JUMPDEST CALLVALUE DUP1 ISZERO PUSH2 0x45 JUMPI PUSH1 0x0 DUP1 REVERT JUMPDEST POP PUSH2 0x4E PUSH2 0x9C JUMP JUMPDEST PUSH1 0x40 MLOAD PUSH2 0x5B SWAP2 SWAP1 PUSH2 0x3F2 JUMP JUMPDEST PUSH1 0x40 MLOAD DUP1 SWAP2 SUB SWAP1 RETURN JUMPDEST PUSH2 0x7E PUSH1 0x4 DUP1 CALLDATASIZE SUB DUP2 ADD SWAP1 PUSH2 0x79 SWAP2 SWAP1 PUSH2 0x567 JUMP JUMPDEST PUSH2 0xC0 JUMP JUMPDEST STOP JUMPDEST PUSH2 0x9A PUSH1 0x4 DUP1 CALLDATASIZE SUB DUP2 ADD SWAP1 PUSH2 0x95 SWAP2 SWAP1 PUSH2 0x624 JUMP JUMPDEST PUSH2 0x17E JUMP JUMPDEST STOP JUMPDEST PUSH1 0x0 DUP1 SLOAD SWAP1 PUSH2 0x100 EXP SWAP1 DIV PUSH20 0xFFFFFFFFFFFFFFFFFFFFFFFFFFFFFFFFFFFFFFFF AND DUP2 JUMP JUMPDEST PUSH1 0x0 PUSH2 0xCB DUP3 PUSH2 0x25C JUMP JUMPDEST SWAP1 POP PUSH1 0x0 DUP2 PUSH20 0xFFFFFFFFFFFFFFFFFFFFFFFFFFFFFFFFFFFFFFFF AND CALLVALUE PUSH1 0x40 MLOAD PUSH2 0xF3 SWAP1 PUSH2 0x6C4 JUMP JUMPDEST PUSH1 0x0 PUSH1 0x40 MLOAD DUP1 DUP4 SUB DUP2 DUP6 DUP8 GAS CALL SWAP3 POP POP POP RETURNDATASIZE DUP1 PUSH1 0x0 DUP2 EQ PUSH2 0x130 JUMPI PUSH1 0x40 MLOAD SWAP2 POP PUSH1 0x1F NOT PUSH1 0x3F RETURNDATASIZE ADD AND DUP3 ADD PUSH1 0x40 MSTORE RETURNDATASIZE DUP3 MSTORE RETURNDATASIZE PUSH1 0x0 PUSH1 0x20 DUP5 ADD RETURNDATACOPY PUSH2 0x135 JUMP JUMPDEST PUSH1 0x60 SWAP2 POP JUMPDEST POP POP SWAP1 POP DUP1 PUSH2 0x179 JUMPI PUSH1 0x40 MLOAD PUSH32 0x8C379A000000000000000000000000000000000000000000000000000000000 DUP2 MSTORE PUSH1 0x4 ADD PUSH2 0x170 SWAP1 PUSH2 0x736 JUMP JUMPDEST PUSH1 0x40 MLOAD DUP1 SWAP2 SUB SWAP1 REVERT JUMPDEST POP POP POP JUMP JUMPDEST PUSH1 0x0 PUSH2 0x189 DUP5 PUSH2 0x25C JUMP JUMPDEST SWAP1 POP PUSH1 0x0 DUP4 SWAP1 POP PUSH1 0x0 DUP2 PUSH20 0xFFFFFFFFFFFFFFFFFFFFFFFFFFFFFFFFFFFFFFFF AND PUSH4 0x23B872DD CALLER DUP6 DUP8 PUSH1 0x40 MLOAD DUP5 PUSH4 0xFFFFFFFF AND PUSH1 0xE0 SHL DUP2 MSTORE PUSH1 0x4 ADD PUSH2 0x1CF SWAP4 SWAP3 SWAP2 SWAP1 PUSH2 0x774 JUMP JUMPDEST PUSH1 0x20 PUSH1 0x40 MLOAD DUP1 DUP4 SUB DUP2 PUSH1 0x0 DUP8 GAS CALL ISZERO DUP1 ISZERO PUSH2 0x1EE JUMPI RETURNDATASIZE PUSH1 0x0 DUP1 RETURNDATACOPY RETURNDATASIZE PUSH1 0x0 REVERT JUMPDEST POP POP POP POP PUSH1 0x40 MLOAD RETURNDATASIZE PUSH1 0x1F NOT PUSH1 0x1F DUP3 ADD AND DUP3 ADD DUP1 PUSH1 0x40 MSTORE POP DUP2 ADD SWAP1 PUSH2 0x212 SWAP2 SWAP1 PUSH2 0x7E3 JUMP JUMPDEST SWAP1 POP DUP1 PUSH2 0x254 JUMPI PUSH1 0x40 MLOAD PUSH32 0x8C379A000000000000000000000000000000000000000000000000000000000 DUP2 MSTORE PUSH1 0x4 ADD PUSH2 0x24B SWAP1 PUSH2 0x85C JUMP JUMPDEST PUSH1 0x40 MLOAD DUP1 SWAP2 SUB SWAP1 REVERT JUMPDEST POP POP POP POP POP POP JUMP JUMPDEST PUSH1 0x0 DUP1 PUSH1 0x0 DUP1 SLOAD SWAP1 PUSH2 0x100 EXP SWAP1 DIV PUSH20 0xFFFFFFFFFFFFFFFFFFFFFFFFFFFFFFFFFFFFFFFF AND PUSH20 0xFFFFFFFFFFFFFFFFFFFFFFFFFFFFFFFFFFFFFFFF AND PUSH4 0x4BFF5009 DUP5 PUSH1 0x40 MLOAD DUP3 PUSH4 0xFFFFFFFF AND PUSH1 0xE0 SHL DUP2 MSTORE PUSH1 0x4 ADD PUSH2 0x2B8 SWAP2 SWAP1 PUSH2 0x8EA JUMP JUMPDEST PUSH1 0x20 PUSH1 0x40 MLOAD DUP1 DUP4 SUB DUP2 DUP7 GAS STATICCALL ISZERO DUP1 ISZERO PUSH2 0x2D5 JUMPI RETURNDATASIZE PUSH1 0x0 DUP1 RETURNDATACOPY RETURNDATASIZE PUSH1 0x0 REVERT JUMPDEST POP POP POP POP PUSH1 0x40 MLOAD RETURNDATASIZE PUSH1 0x1F NOT PUSH1 0x1F DUP3 ADD AND DUP3 ADD DUP1 PUSH1 0x40 MSTORE POP DUP2 ADD SWAP1 PUSH2 0x2F9 SWAP2 SWAP1 PUSH2 0x921 JUMP JUMPDEST SWAP1 POP PUSH1 0x0 PUSH20 0xFFFFFFFFFFFFFFFFFFFFFFFFFFFFFFFFFFFFFFFF AND DUP2 PUSH20 0xFFFFFFFFFFFFFFFFFFFFFFFFFFFFFFFFFFFFFFFF AND SUB PUSH2 0x36A JUMPI PUSH1 0x40 MLOAD PUSH32 0x8C379A000000000000000000000000000000000000000000000000000000000 DUP2 MSTORE PUSH1 0x4 ADD PUSH2 0x361 SWAP1 PUSH2 0x99A JUMP JUMPDEST PUSH1 0x40 MLOAD DUP1 SWAP2 SUB SWAP1 REVERT JUMPDEST DUP1 SWAP2 POP POP SWAP2 SWAP1 POP JUMP JUMPDEST PUSH1 0x0 PUSH20 0xFFFFFFFFFFFFFFFFFFFFFFFFFFFFFFFFFFFFFFFF DUP3 AND SWAP1 POP SWAP2 SWAP1 POP JUMP JUMPDEST PUSH1 0x0 DUP2 SWAP1 POP SWAP2 SWAP1 POP JUMP JUMPDEST PUSH1 0x0 PUSH2 0x3B8 PUSH2 0x3B3 PUSH2 0x3AE DUP5 PUSH2 0x373 JUMP JUMPDEST PUSH2 0x393 JUMP JUMPDEST PUSH2 0x373 JUMP JUMPDEST SWAP1 POP SWAP2 SWAP1 POP JUMP JUMPDEST PUSH1 0x0 PUSH2 0x3CA DUP3 PUSH2 0x39D JUMP JUMPDEST SWAP1 POP SWAP2 SWAP1 POP JUMP JUMPDEST PUSH1 0x0 PUSH2 0x3DC DUP3 PUSH2 0x3BF JUMP JUMPDEST SWAP1 POP SWAP2 SWAP1 POP JUMP JUMPDEST PUSH2 0x3EC DUP2 PUSH2 0x3D1 JUMP JUMPDEST DUP3 MSTORE POP POP JUMP JUMPDEST PUSH1 0x0 PUSH1 0x20 DUP3 ADD SWAP1 POP PUSH2 0x407 PUSH1 0x0 DUP4 ADD DUP5 PUSH2 0x3E3 JUMP JUMPDEST SWAP3 SWAP2 POP POP JUMP JUMPDEST PUSH1 0x0 PUSH1 0x40 MLOAD SWAP1 POP SWAP1 JUMP JUMPDEST PUSH1 0x0 DUP1 REVERT JUMPDEST PUSH1 0x0 DUP1 REVERT JUMPDEST PUSH1 0x0 DUP1 REVERT JUMPDEST PUSH1 0x0 DUP1 REVERT JUMPDEST PUSH1 0x0 PUSH1 0x1F NOT PUSH1 0x1F DUP4 ADD AND SWAP1 POP SWAP2 SWAP1 POP JUMP JUMPDEST PUSH32 0x4E487B7100000000000000000000000000000000000000000000000000000000 PUSH1 0x0 MSTORE PUSH1 0x41 PUSH1 0x4 MSTORE PUSH1 0x24 PUSH1 0x0 REVERT JUMPDEST PUSH2 0x474 DUP3 PUSH2 0x42B JUMP JUMPDEST DUP2 ADD DUP2 DUP2 LT PUSH8 0xFFFFFFFFFFFFFFFF DUP3 GT OR ISZERO PUSH2 0x493 JUMPI PUSH2 0x492 PUSH2 0x43C JUMP JUMPDEST JUMPDEST DUP1 PUSH1 0x40 MSTORE POP POP POP JUMP JUMPDEST PUSH1 0x0 PUSH2 0x4A6 PUSH2 0x40D JUMP JUMPDEST SWAP1 POP PUSH2 0x4B2 DUP3 DUP3 PUSH2 0x46B JUMP JUMPDEST SWAP2 SWAP1 POP JUMP JUMPDEST PUSH1 0x0 PUSH8 0xFFFFFFFFFFFFFFFF DUP3 GT ISZERO PUSH2 0x4D2 JUMPI PUSH2 0x4D1 PUSH2 0x43C JUMP JUMPDEST JUMPDEST PUSH2 0x4DB DUP3 PUSH2 0x42B JUMP JUMPDEST SWAP1 POP PUSH1 0x20 DUP2 ADD SWAP1 POP SWAP2 SWAP1 POP JUMP JUMPDEST DUP3 DUP2 DUP4 CALLDATACOPY PUSH1 0x0 DUP4 DUP4 ADD MSTORE POP POP POP JUMP JUMPDEST PUSH1 0x0 PUSH2 0x50A PUSH2 0x505 DUP5 PUSH2 0x4B7 JUMP JUMPDEST PUSH2 0x49C JUMP JUMPDEST SWAP1 POP DUP3 DUP2 MSTORE PUSH1 0x20 DUP2 ADD DUP5 DUP5 DUP5 ADD GT ISZERO PUSH2 0x526 JUMPI PUSH2 0x525 PUSH2 0x426 JUMP JUMPDEST JUMPDEST PUSH2 0x531 DUP5 DUP3 DUP6 PUSH2 0x4E8 JUMP JUMPDEST POP SWAP4 SWAP3 POP POP POP JUMP JUMPDEST PUSH1 0x0 DUP3 PUSH1 0x1F DUP4 ADD SLT PUSH2 0x54E JUMPI PUSH2 0x54D PUSH2 0x421 JUMP JUMPDEST JUMPDEST DUP2 CALLDATALOAD PUSH2 0x55E DUP5 DUP3 PUSH1 0x20 DUP7 ADD PUSH2 0x4F7 JUMP JUMPDEST SWAP2 POP POP SWAP3 SWAP2 POP POP JUMP JUMPDEST PUSH1 0x0 PUSH1 0x20 DUP3 DUP5 SUB SLT ISZERO PUSH2 0x57D JUMPI PUSH2 0x57C PUSH2 0x417 JUMP JUMPDEST JUMPDEST PUSH1 0x0 DUP3 ADD CALLDATALOAD PUSH8 0xFFFFFFFFFFFFFFFF DUP2 GT ISZERO PUSH2 0x59B JUMPI PUSH2 0x59A PUSH2 0x41C JUMP JUMPDEST JUMPDEST PUSH2 0x5A7 DUP5 DUP3 DUP6 ADD PUSH2 0x539 JUMP JUMPDEST SWAP2 POP POP SWAP3 SWAP2 POP POP JUMP JUMPDEST PUSH1 0x0 PUSH2 0x5BB DUP3 PUSH2 0x373 JUMP JUMPDEST SWAP1 POP SWAP2 SWAP1 POP JUMP JUMPDEST PUSH2 0x5CB DUP2 PUSH2 0x5B0 JUMP JUMPDEST DUP2 EQ PUSH2 0x5D6 JUMPI PUSH1 0x0 DUP1 REVERT JUMPDEST POP JUMP JUMPDEST PUSH1 0x0 DUP2 CALLDATALOAD SWAP1 POP PUSH2 0x5E8 DUP2 PUSH2 0x5C2 JUMP JUMPDEST SWAP3 SWAP2 POP POP JUMP JUMPDEST PUSH1 0x0 DUP2 SWAP1 POP SWAP2 SWAP1 POP JUMP JUMPDEST PUSH2 0x601 DUP2 PUSH2 0x5EE JUMP JUMPDEST DUP2 EQ PUSH2 0x60C JUMPI PUSH1 0x0 DUP1 REVERT JUMPDEST POP JUMP JUMPDEST PUSH1 0x0 DUP2 CALLDATALOAD SWAP1 POP PUSH2 0x61E DUP2 PUSH2 0x5F8 JUMP JUMPDEST SWAP3 SWAP2 POP POP JUMP JUMPDEST PUSH1 0x0 DUP1 PUSH1 0x0 PUSH1 0x60 DUP5 DUP7 SUB SLT ISZERO PUSH2 0x63D JUMPI PUSH2 0x63C PUSH2 0x417 JUMP JUMPDEST JUMPDEST PUSH1 0x0 DUP5 ADD CALLDATALOAD PUSH8 0xFFFFFFFFFFFFFFFF DUP2 GT ISZERO PUSH2 0x65B JUMPI PUSH2 0x65A PUSH2 0x41C JUMP JUMPDEST JUMPDEST PUSH2 0x667 DUP7 DUP3 DUP8 ADD PUSH2 0x539 JUMP JUMPDEST SWAP4 POP POP PUSH1 0x20 PUSH2 0x678 DUP7 DUP3 DUP8 ADD PUSH2 0x5D9 JUMP JUMPDEST SWAP3 POP POP PUSH1 0x40 PUSH2 0x689 DUP7 DUP3 DUP8 ADD PUSH2 0x60F JUMP JUMPDEST SWAP2 POP POP SWAP3 POP SWAP3 POP SWAP3 JUMP JUMPDEST PUSH1 0x0 DUP2 SWAP1 POP SWAP3 SWAP2 POP POP JUMP JUMPDEST POP JUMP JUMPDEST PUSH1 0x0 PUSH2 0x6AE PUSH1 0x0 DUP4 PUSH2 0x693 JUMP JUMPDEST SWAP2 POP PUSH2 0x6B9 DUP3 PUSH2 0x69E JUMP JUMPDEST PUSH1 0x0 DUP3 ADD SWAP1 POP SWAP2 SWAP1 POP JUMP JUMPDEST PUSH1 0x0 PUSH2 0x6CF DUP3 PUSH2 0x6A1 JUMP JUMPDEST SWAP2 POP DUP2 SWAP1 POP SWAP2 SWAP1 POP JUMP JUMPDEST PUSH1 0x0 DUP3 DUP3 MSTORE PUSH1 0x20 DUP3 ADD SWAP1 POP SWAP3 SWAP2 POP POP JUMP JUMPDEST PUSH32 0x4572726F72000000000000000000000000000000000000000000000000000000 PUSH1 0x0 DUP3 ADD MSTORE POP JUMP JUMPDEST PUSH1 0x0 PUSH2 0x720 PUSH1 0x5 DUP4 PUSH2 0x6D9 JUMP JUMPDEST SWAP2 POP PUSH2 0x72B DUP3 PUSH2 0x6EA JUMP JUMPDEST PUSH1 0x20 DUP3 ADD SWAP1 POP SWAP2 SWAP1 POP JUMP JUMPDEST PUSH1 0x0 PUSH1 0x20 DUP3 ADD SWAP1 POP DUP2 DUP2 SUB PUSH1 0x0 DUP4 ADD MSTORE PUSH2 0x74F DUP2 PUSH2 0x713 JUMP JUMPDEST SWAP1 POP SWAP2 SWAP1 POP JUMP JUMPDEST PUSH2 0x75F DUP2 PUSH2 0x5B0 JUMP JUMPDEST DUP3 MSTORE POP POP JUMP JUMPDEST PUSH2 0x76E DUP2 PUSH2 0x5EE JUMP JUMPDEST DUP3 MSTORE POP POP JUMP JUMPDEST PUSH1 0x0 PUSH1 0x60 DUP3 ADD SWAP1 POP PUSH2 0x789 PUSH1 0x0 DUP4 ADD DUP7 PUSH2 0x756 JUMP JUMPDEST PUSH2 0x796 PUSH1 0x20 DUP4 ADD DUP6 PUSH2 0x756 JUMP JUMPDEST PUSH2 0x7A3 PUSH1 0x40 DUP4 ADD DUP5 PUSH2 0x765 JUMP JUMPDEST SWAP5 SWAP4 POP POP POP POP JUMP JUMPDEST PUSH1 0x0 DUP2 ISZERO ISZERO SWAP1 POP SWAP2 SWAP1 POP JUMP JUMPDEST PUSH2 0x7C0 DUP2 PUSH2 0x7AB JUMP JUMPDEST DUP2 EQ PUSH2 0x7CB JUMPI PUSH1 0x0 DUP1 REVERT JUMPDEST POP JUMP JUMPDEST PUSH1 0x0 DUP2 MLOAD SWAP1 POP PUSH2 0x7DD DUP2 PUSH2 0x7B7 JUMP JUMPDEST SWAP3 SWAP2 POP POP JUMP JUMPDEST PUSH1 0x0 PUSH1 0x20 DUP3 DUP5 SUB SLT ISZERO PUSH2 0x7F9 JUMPI PUSH2 0x7F8 PUSH2 0x417 JUMP JUMPDEST JUMPDEST PUSH1 0x0 PUSH2 0x807 DUP5 DUP3 DUP6 ADD PUSH2 0x7CE JUMP JUMPDEST SWAP2 POP POP SWAP3 SWAP2 POP POP JUMP JUMPDEST PUSH32 0x556E61626C6520746F2073656E7420746F6B656E730000000000000000000000 PUSH1 0x0 DUP3 ADD MSTORE POP JUMP JUMPDEST PUSH1 0x0 PUSH2 0x846 PUSH1 0x15 DUP4 PUSH2 0x6D9 JUMP JUMPDEST SWAP2 POP PUSH2 0x851 DUP3 PUSH2 0x810 JUMP JUMPDEST PUSH1 0x20 DUP3 ADD SWAP1 POP SWAP2 SWAP1 POP JUMP JUMPDEST PUSH1 0x0 PUSH1 0x20 DUP3 ADD SWAP1 POP DUP2 DUP2 SUB PUSH1 0x0 DUP4 ADD MSTORE PUSH2 0x875 DUP2 PUSH2 0x839 JUMP JUMPDEST SWAP1 POP SWAP2 SWAP1 POP JUMP JUMPDEST PUSH1 0x0 DUP2 MLOAD SWAP1 POP SWAP2 SWAP1 POP JUMP JUMPDEST PUSH1 0x0 JUMPDEST DUP4 DUP2 LT ISZERO PUSH2 0x8A5 JUMPI DUP1 DUP3 ADD MLOAD DUP2 DUP5 ADD MSTORE PUSH1 0x20 DUP2 ADD SWAP1 POP PUSH2 0x88A JUMP JUMPDEST PUSH1 0x0 DUP5 DUP5 ADD MSTORE POP POP POP POP JUMP JUMPDEST PUSH1 0x0 PUSH2 0x8BC DUP3 PUSH2 0x87C JUMP JUMPDEST PUSH2 0x8C6 DUP2 DUP6 PUSH2 0x6D9 JUMP JUMPDEST SWAP4 POP PUSH2 0x8D6 DUP2 DUP6 PUSH1 0x20 DUP7 ADD PUSH2 0x887 JUMP JUMPDEST PUSH2 0x8DF DUP2 PUSH2 0x42B JUMP JUMPDEST DUP5 ADD SWAP2 POP POP SWAP3 SWAP2 POP POP JUMP JUMPDEST PUSH1 0x0 PUSH1 0x20 DUP3 ADD SWAP1 POP DUP2 DUP2 SUB PUSH1 0x0 DUP4 ADD MSTORE PUSH2 0x904 DUP2 DUP5 PUSH2 0x8B1 JUMP JUMPDEST SWAP1 POP SWAP3 SWAP2 POP POP JUMP JUMPDEST PUSH1 0x0 DUP2 MLOAD SWAP1 POP PUSH2 0x91B DUP2 PUSH2 0x5C2 JUMP JUMPDEST SWAP3 SWAP2 POP POP JUMP JUMPDEST PUSH1 0x0 PUSH1 0x20 DUP3 DUP5 SUB SLT ISZERO PUSH2 0x937 JUMPI PUSH2 0x936 PUSH2 0x417 JUMP JUMPDEST JUMPDEST PUSH1 0x0 PUSH2 0x945 DUP5 DUP3 DUP6 ADD PUSH2 0x90C JUMP JUMPDEST SWAP2 POP POP SWAP3 SWAP2 POP POP JUMP JUMPDEST PUSH32 0x55736572206E6F7420666F756E64000000000000000000000000000000000000 PUSH1 0x0 DUP3 ADD MSTORE POP JUMP JUMPDEST PUSH1 0x0 PUSH2 0x984 PUSH1 0xE DUP4 PUSH2 0x6D9 JUMP JUMPDEST SWAP2 POP PUSH2 0x98F DUP3 PUSH2 0x94E JUMP JUMPDEST PUSH1 0x20 DUP3 ADD SWAP1 POP SWAP2 SWAP1 POP JUMP JUMPDEST PUSH1 0x0 PUSH1 0x20 DUP3 ADD SWAP1 POP DUP2 DUP2 SUB PUSH1 0x0 DUP4 ADD MSTORE PUSH2 0x9B3 DUP2 PUSH2 0x977 JUMP JUMPDEST SWAP1 POP SWAP2 SWAP1 POP JUMP INVALID LOG2 PUSH5 0x6970667358 0x22 SLT KECCAK256 CREATE2 PUSH6 0xEACCB3A4FFF0 LOG0 SHR PUSH11 0xA646A3F3D749C02073C17F 0xC PUSH1 0x76 DUP5 SLOAD SWAP14 0xD3 DUP11 DUP1 0xA6 PUSH5 0x736F6C6343 STOP ADDMOD GT STOP CALLER PUSH1 0x80 PUSH1 0x40 MSTORE CALLVALUE DUP1 ISZERO PUSH2 0x10 JUMPI PUSH1 0x0 DUP1 REVERT JUMPDEST POP PUSH2 0x515 DUP1 PUSH2 0x20 PUSH1 0x0 CODECOPY PUSH1 0x0 RETURN INVALID PUSH1 0x80 PUSH1 0x40 MSTORE CALLVALUE DUP1 ISZERO PUSH2 0x10 JUMPI PUSH1 0x0 DUP1 REVERT JUMPDEST POP PUSH1 0x4 CALLDATASIZE LT PUSH2 0x36 JUMPI PUSH1 0x0 CALLDATALOAD PUSH1 0xE0 SHR DUP1 PUSH4 0x4BFF5009 EQ PUSH2 0x3B JUMPI DUP1 PUSH4 0x529FF8D4 EQ PUSH2 0x6B JUMPI JUMPDEST PUSH1 0x0 DUP1 REVERT JUMPDEST PUSH2 0x55 PUSH1 0x4 DUP1 CALLDATASIZE SUB DUP2 ADD SWAP1 PUSH2 0x50 SWAP2 SWAP1 PUSH2 0x335 JUMP JUMPDEST PUSH2 0x87 JUMP JUMPDEST PUSH1 0x40 MLOAD PUSH2 0x62 SWAP2 SWAP1 PUSH2 0x3BF JUMP JUMPDEST PUSH1 0x40 MLOAD DUP1 SWAP2 SUB SWAP1 RETURN JUMPDEST PUSH2 0x85 PUSH1 0x4 DUP1 CALLDATASIZE SUB DUP2 ADD SWAP1 PUSH2 0x80 SWAP2 SWAP1 PUSH2 0x335 JUMP JUMPDEST PUSH2 0xCE JUMP JUMPDEST STOP JUMPDEST PUSH1 0x0 DUP1 DUP3 PUSH1 0x40 MLOAD PUSH2 0x98 SWAP2 SWAP1 PUSH2 0x44B JUMP JUMPDEST SWAP1 DUP2 MSTORE PUSH1 0x20 ADD PUSH1 0x40 MLOAD DUP1 SWAP2 SUB SWAP1 KECCAK256 PUSH1 0x0 SWAP1 SLOAD SWAP1 PUSH2 0x100 EXP SWAP1 DIV PUSH20 0xFFFFFFFFFFFFFFFFFFFFFFFFFFFFFFFFFFFFFFFF AND SWAP1 POP SWAP2 SWAP1 POP JUMP JUMPDEST PUSH1 0x0 PUSH20 0xFFFFFFFFFFFFFFFFFFFFFFFFFFFFFFFFFFFFFFFF AND PUSH1 0x0 DUP3 PUSH1 0x40 MLOAD PUSH2 0xF6 SWAP2 SWAP1 PUSH2 0x44B JUMP JUMPDEST SWAP1 DUP2 MSTORE PUSH1 0x20 ADD PUSH1 0x40 MLOAD DUP1 SWAP2 SUB SWAP1 KECCAK256 PUSH1 0x0 SWAP1 SLOAD SWAP1 PUSH2 0x100 EXP SWAP1 DIV PUSH20 0xFFFFFFFFFFFFFFFFFFFFFFFFFFFFFFFFFFFFFFFF AND PUSH20 0xFFFFFFFFFFFFFFFFFFFFFFFFFFFFFFFFFFFFFFFF AND EQ PUSH2 0x17B JUMPI PUSH1 0x40 MLOAD PUSH32 0x8C379A000000000000000000000000000000000000000000000000000000000 DUP2 MSTORE PUSH1 0x4 ADD PUSH2 0x172 SWAP1 PUSH2 0x4BF JUMP JUMPDEST PUSH1 0x40 MLOAD DUP1 SWAP2 SUB SWAP1 REVERT JUMPDEST CALLER PUSH1 0x0 DUP3 PUSH1 0x40 MLOAD PUSH2 0x18C SWAP2 SWAP1 PUSH2 0x44B JUMP JUMPDEST SWAP1 DUP2 MSTORE PUSH1 0x20 ADD PUSH1 0x40 MLOAD DUP1 SWAP2 SUB SWAP1 KECCAK256 PUSH1 0x0 PUSH2 0x100 EXP DUP2 SLOAD DUP2 PUSH20 0xFFFFFFFFFFFFFFFFFFFFFFFFFFFFFFFFFFFFFFFF MUL NOT AND SWAP1 DUP4 PUSH20 0xFFFFFFFFFFFFFFFFFFFFFFFFFFFFFFFFFFFFFFFF AND MUL OR SWAP1 SSTORE POP POP JUMP JUMPDEST PUSH1 0x0 PUSH1 0x40 MLOAD SWAP1 POP SWAP1 JUMP JUMPDEST PUSH1 0x0 DUP1 REVERT JUMPDEST PUSH1 0x0 DUP1 REVERT JUMPDEST PUSH1 0x0 DUP1 REVERT JUMPDEST PUSH1 0x0 DUP1 REVERT JUMPDEST PUSH1 0x0 PUSH1 0x1F NOT PUSH1 0x1F DUP4 ADD AND SWAP1 POP SWAP2 SWAP1 POP JUMP JUMPDEST PUSH32 0x4E487B7100000000000000000000000000000000000000000000000000000000 PUSH1 0x0 MSTORE PUSH1 0x41 PUSH1 0x4 MSTORE PUSH1 0x24 PUSH1 0x0 REVERT JUMPDEST PUSH2 0x242 DUP3 PUSH2 0x1F9 JUMP JUMPDEST DUP2 ADD DUP2 DUP2 LT PUSH8 0xFFFFFFFFFFFFFFFF DUP3 GT OR ISZERO PUSH2 0x261 JUMPI PUSH2 0x260 PUSH2 0x20A JUMP JUMPDEST JUMPDEST DUP1 PUSH1 0x40 MSTORE POP POP POP JUMP JUMPDEST PUSH1 0x0 PUSH2 0x274 PUSH2 0x1DB JUMP JUMPDEST SWAP1 POP PUSH2 0x280 DUP3 DUP3 PUSH2 0x239 JUMP JUMPDEST SWAP2 SWAP1 POP JUMP JUMPDEST PUSH1 0x0 PUSH8 0xFFFFFFFFFFFFFFFF DUP3 GT ISZERO PUSH2 0x2A0 JUMPI PUSH2 0x29F PUSH2 0x20A JUMP JUMPDEST JUMPDEST PUSH2 0x2A9 DUP3 PUSH2 0x1F9 JUMP JUMPDEST SWAP1 POP PUSH1 0x20 DUP2 ADD SWAP1 POP SWAP2 SWAP1 POP JUMP JUMPDEST DUP3 DUP2 DUP4 CALLDATACOPY PUSH1 0x0 DUP4 DUP4 ADD MSTORE POP POP POP JUMP JUMPDEST PUSH1 0x0 PUSH2 0x2D8 PUSH2 0x2D3 DUP5 PUSH2 0x285 JUMP JUMPDEST PUSH2 0x26A JUMP JUMPDEST SWAP1 POP DUP3 DUP2 MSTORE PUSH1 0x20 DUP2 ADD DUP5 DUP5 DUP5 ADD GT ISZERO PUSH2 0x2F4 JUMPI PUSH2 0x2F3 PUSH2 0x1F4 JUMP JUMPDEST JUMPDEST PUSH2 0x2FF DUP5 DUP3 DUP6 PUSH2 0x2B6 JUMP JUMPDEST POP SWAP4 SWAP3 POP POP POP JUMP JUMPDEST PUSH1 0x0 DUP3 PUSH1 0x1F DUP4 ADD SLT PUSH2 0x31C JUMPI PUSH2 0x31B PUSH2 0x1EF JUMP JUMPDEST JUMPDEST DUP2 CALLDATALOAD PUSH2 0x32C DUP5 DUP3 PUSH1 0x20 DUP7 ADD PUSH2 0x2C5 JUMP JUMPDEST SWAP2 POP POP SWAP3 SWAP2 POP POP JUMP JUMPDEST PUSH1 0x0 PUSH1 0x20 DUP3 DUP5 SUB SLT ISZERO PUSH2 0x34B JUMPI PUSH2 0x34A PUSH2 0x1E5 JUMP JUMPDEST JUMPDEST PUSH1 0x0 DUP3 ADD CALLDATALOAD PUSH8 0xFFFFFFFFFFFFFFFF DUP2 GT ISZERO PUSH2 0x369 JUMPI PUSH2 0x368 PUSH2 0x1EA JUMP JUMPDEST JUMPDEST PUSH2 0x375 DUP5 DUP3 DUP6 ADD PUSH2 0x307 JUMP JUMPDEST SWAP2 POP POP SWAP3 SWAP2 POP POP JUMP JUMPDEST PUSH1 0x0 PUSH20 0xFFFFFFFFFFFFFFFFFFFFFFFFFFFFFFFFFFFFFFFF DUP3 AND SWAP1 POP SWAP2 SWAP1 POP JUMP JUMPDEST PUSH1 0x0 PUSH2 0x3A9 DUP3 PUSH2 0x37E JUMP JUMPDEST SWAP1 POP SWAP2 SWAP1 POP JUMP JUMPDEST PUSH2 0x3B9 DUP2 PUSH2 0x39E JUMP JUMPDEST DUP3 MSTORE POP POP JUMP JUMPDEST PUSH1 0x0 PUSH1 0x20 DUP3 ADD SWAP1 POP PUSH2 0x3D4 PUSH1 0x0 DUP4 ADD DUP5 PUSH2 0x3B0 JUMP JUMPDEST SWAP3 SWAP2 POP POP JUMP JUMPDEST PUSH1 0x0 DUP2 MLOAD SWAP1 POP SWAP2 SWAP1 POP JUMP JUMPDEST PUSH1 0x0 DUP2 SWAP1 POP SWAP3 SWAP2 POP POP JUMP JUMPDEST PUSH1 0x0 JUMPDEST DUP4 DUP2 LT ISZERO PUSH2 0x40E JUMPI DUP1 DUP3 ADD MLOAD DUP2 DUP5 ADD MSTORE PUSH1 0x20 DUP2 ADD SWAP1 POP PUSH2 0x3F3 JUMP JUMPDEST PUSH1 0x0 DUP5 DUP5 ADD MSTORE POP POP POP POP JUMP JUMPDEST PUSH1 0x0 PUSH2 0x425 DUP3 PUSH2 0x3DA JUMP JUMPDEST PUSH2 0x42F DUP2 DUP6 PUSH2 0x3E5 JUMP JUMPDEST SWAP4 POP PUSH2 0x43F DUP2 DUP6 PUSH1 0x20 DUP7 ADD PUSH2 0x3F0 JUMP JUMPDEST DUP1 DUP5 ADD SWAP2 POP POP SWAP3 SWAP2 POP POP JUMP JUMPDEST PUSH1 0x0 PUSH2 0x457 DUP3 DUP5 PUSH2 0x41A JUMP JUMPDEST SWAP2 POP DUP2 SWAP1 POP SWAP3 SWAP2 POP POP JUMP JUMPDEST PUSH1 0x0 DUP3 DUP3 MSTORE PUSH1 0x20 DUP3 ADD SWAP1 POP SWAP3 SWAP2 POP POP JUMP JUMPDEST PUSH32 0x4E69636B6E616D652068617320616C72656164792074616B656E000000000000 PUSH1 0x0 DUP3 ADD MSTORE POP JUMP JUMPDEST PUSH1 0x0 PUSH2 0x4A9 PUSH1 0x1A DUP4 PUSH2 0x462 JUMP JUMPDEST SWAP2 POP PUSH2 0x4B4 DUP3 PUSH2 0x473 JUMP JUMPDEST PUSH1 0x20 DUP3 ADD SWAP1 POP SWAP2 SWAP1 POP JUMP JUMPDEST PUSH1 0x0 PUSH1 0x20 DUP3 ADD SWAP1 POP DUP2 DUP2 SUB PUSH1 0x0 DUP4 ADD MSTORE PUSH2 0x4D8 DUP2 PUSH2 0x49C JUMP JUMPDEST SWAP1 POP SWAP2 SWAP1 POP JUMP INVALID LOG2 PUSH5 0x6970667358 0x22 SLT KECCAK256 0xC4 PUSH14 0xA44192EAEB8AAEE20C3A820AF0C9 0xFB LOG0 DUP8 EXP LOG3 GT PUSH27 0x49D0F73CFF7324A71B64736F6C6343000811003300000000000000 "
		},
		"gasEstimates": {
			"creation": {
				"codeDepositCost": "508800",
				"executionCost": "infinite",
				"totalCost": "infinite"
			},
			"external": {
				"sendERC20(string,address,uint256)": "infinite",
				"sendEth(string)": "infinite",
				"userManager()": "infinite"
			},
			"internal": {
				"checkUser(string memory)": "infinite"
			}
		},
		"methodIdentifiers": {
			"sendERC20(string,address,uint256)": "abab4e07",
			"sendEth(string)": "7aa1c0d8",
			"userManager()": "5c8a7687"
		}
	},
	"abi": [
		{
			"inputs": [],
			"stateMutability": "nonpayable",
			"type": "constructor"
		},
		{
			"inputs": [
				{
					"internalType": "string",
					"name": "nickname",
					"type": "string"
				},
				{
					"internalType": "address",
					"name": "tokenAddress",
					"type": "address"
				},
				{
					"internalType": "uint256",
					"name": "amount",
					"type": "uint256"
				}
			],
			"name": "sendERC20",
			"outputs": [],
			"stateMutability": "payable",
			"type": "function"
		},
		{
			"inputs": [
				{
					"internalType": "string",
					"name": "nickname",
					"type": "string"
				}
			],
			"name": "sendEth",
			"outputs": [],
			"stateMutability": "payable",
			"type": "function"
		},
		{
			"inputs": [],
			"name": "userManager",
			"outputs": [
				{
					"internalType": "contract UserManager",
					"name": "",
					"type": "address"
				}
			],
			"stateMutability": "view",
			"type": "function"
		}
	]
}